{
  "_format": "hh-sol-artifact-1",
  "contractName": "InvestmentReceiptSBT",
  "sourceName": "contracts/InvestmentReceiptSBT.sol",
  "abi": [
    {
      "inputs": [],
      "stateMutability": "nonpayable",
      "type": "constructor"
    },
    {
      "anonymous": false,
      "inputs": [
        {
          "indexed": true,
          "internalType": "address",
          "name": "owner",
          "type": "address"
        },
        {
          "indexed": true,
          "internalType": "address",
          "name": "approved",
          "type": "address"
        },
        {
          "indexed": true,
          "internalType": "uint256",
          "name": "tokenId",
          "type": "uint256"
        }
      ],
      "name": "Approval",
      "type": "event"
    },
    {
      "anonymous": false,
      "inputs": [
        {
          "indexed": true,
          "internalType": "address",
          "name": "owner",
          "type": "address"
        },
        {
          "indexed": true,
          "internalType": "address",
          "name": "operator",
          "type": "address"
        },
        {
          "indexed": false,
          "internalType": "bool",
          "name": "approved",
          "type": "bool"
        }
      ],
      "name": "ApprovalForAll",
      "type": "event"
    },
    {
      "anonymous": false,
      "inputs": [
        {
          "indexed": true,
          "internalType": "uint256",
          "name": "tokenId",
          "type": "uint256"
        },
        {
          "indexed": true,
          "internalType": "address",
          "name": "investor",
          "type": "address"
        },
        {
          "indexed": false,
          "internalType": "uint256",
          "name": "principal",
          "type": "uint256"
        },
        {
          "indexed": false,
          "internalType": "uint256",
          "name": "targetAPY",
          "type": "uint256"
        },
        {
          "indexed": false,
          "internalType": "string",
          "name": "ipfsHash",
          "type": "string"
        }
      ],
      "name": "InvestmentCreated",
      "type": "event"
    },
    {
      "anonymous": false,
      "inputs": [
        {
          "indexed": true,
          "internalType": "address",
          "name": "previousOwner",
          "type": "address"
        },
        {
          "indexed": true,
          "internalType": "address",
          "name": "newOwner",
          "type": "address"
        }
      ],
      "name": "OwnershipTransferred",
      "type": "event"
    },
    {
      "anonymous": false,
      "inputs": [
        {
          "indexed": true,
          "internalType": "address",
          "name": "from",
          "type": "address"
        },
        {
          "indexed": true,
          "internalType": "address",
          "name": "to",
          "type": "address"
        },
        {
          "indexed": true,
          "internalType": "uint256",
          "name": "tokenId",
          "type": "uint256"
        }
      ],
      "name": "Transfer",
      "type": "event"
    },
    {
      "inputs": [
        {
          "internalType": "address",
          "name": "to",
          "type": "address"
        },
        {
          "internalType": "uint256",
          "name": "tokenId",
          "type": "uint256"
        }
      ],
      "name": "approve",
      "outputs": [],
      "stateMutability": "nonpayable",
      "type": "function"
    },
    {
      "inputs": [
        {
          "internalType": "address",
          "name": "owner",
          "type": "address"
        }
      ],
      "name": "balanceOf",
      "outputs": [
        {
          "internalType": "uint256",
          "name": "",
          "type": "uint256"
        }
      ],
      "stateMutability": "view",
      "type": "function"
    },
    {
      "inputs": [
        {
          "internalType": "uint256",
          "name": "tokenId",
          "type": "uint256"
        }
      ],
      "name": "calculateCurrentValue",
      "outputs": [
        {
          "internalType": "uint256",
          "name": "",
          "type": "uint256"
        }
      ],
      "stateMutability": "view",
      "type": "function"
    },
    {
      "inputs": [
        {
          "internalType": "uint256",
          "name": "tokenId",
          "type": "uint256"
        }
      ],
      "name": "getApproved",
      "outputs": [
        {
          "internalType": "address",
          "name": "",
          "type": "address"
        }
      ],
      "stateMutability": "view",
      "type": "function"
    },
    {
      "inputs": [
        {
          "internalType": "uint256",
          "name": "tokenId",
          "type": "uint256"
        }
      ],
      "name": "getInvestment",
      "outputs": [
        {
          "components": [
            {
              "internalType": "address",
              "name": "investor",
              "type": "address"
            },
            {
              "internalType": "uint256",
              "name": "principal",
              "type": "uint256"
            },
            {
              "internalType": "uint256",
              "name": "targetAPY",
              "type": "uint256"
            },
            {
              "internalType": "uint256",
              "name": "startTime",
              "type": "uint256"
            },
            {
              "internalType": "uint256",
              "name": "maturityTime",
              "type": "uint256"
            },
            {
              "internalType": "string",
              "name": "ipfsHash",
              "type": "string"
            },
            {
              "internalType": "string",
              "name": "termsHash",
              "type": "string"
            },
            {
              "internalType": "string",
              "name": "contractType",
              "type": "string"
            },
            {
              "internalType": "bool",
              "name": "isActive",
              "type": "bool"
            }
          ],
          "internalType": "struct InvestmentReceiptSBT.Investment",
          "name": "",
          "type": "tuple"
        }
      ],
      "stateMutability": "view",
      "type": "function"
    },
    {
      "inputs": [
        {
          "internalType": "address",
          "name": "investor",
          "type": "address"
        }
      ],
      "name": "getInvestorTokens",
      "outputs": [
        {
          "internalType": "uint256[]",
          "name": "",
          "type": "uint256[]"
        }
      ],
      "stateMutability": "view",
      "type": "function"
    },
    {
      "inputs": [
        {
          "internalType": "uint256",
          "name": "",
          "type": "uint256"
        }
      ],
      "name": "investments",
      "outputs": [
        {
          "internalType": "address",
          "name": "investor",
          "type": "address"
        },
        {
          "internalType": "uint256",
          "name": "principal",
          "type": "uint256"
        },
        {
          "internalType": "uint256",
          "name": "targetAPY",
          "type": "uint256"
        },
        {
          "internalType": "uint256",
          "name": "startTime",
          "type": "uint256"
        },
        {
          "internalType": "uint256",
          "name": "maturityTime",
          "type": "uint256"
        },
        {
          "internalType": "string",
          "name": "ipfsHash",
          "type": "string"
        },
        {
          "internalType": "string",
          "name": "termsHash",
          "type": "string"
        },
        {
          "internalType": "string",
          "name": "contractType",
          "type": "string"
        },
        {
          "internalType": "bool",
          "name": "isActive",
          "type": "bool"
        }
      ],
      "stateMutability": "view",
      "type": "function"
    },
    {
      "inputs": [
        {
          "internalType": "address",
          "name": "",
          "type": "address"
        },
        {
          "internalType": "uint256",
          "name": "",
          "type": "uint256"
        }
      ],
      "name": "investorTokens",
      "outputs": [
        {
          "internalType": "uint256",
          "name": "",
          "type": "uint256"
        }
      ],
      "stateMutability": "view",
      "type": "function"
    },
    {
      "inputs": [
        {
          "internalType": "address",
          "name": "owner",
          "type": "address"
        },
        {
          "internalType": "address",
          "name": "operator",
          "type": "address"
        }
      ],
      "name": "isApprovedForAll",
      "outputs": [
        {
          "internalType": "bool",
          "name": "",
          "type": "bool"
        }
      ],
      "stateMutability": "view",
      "type": "function"
    },
    {
      "inputs": [
        {
          "internalType": "address",
          "name": "investor",
          "type": "address"
        },
        {
          "internalType": "uint256",
          "name": "targetAPY",
          "type": "uint256"
        },
        {
          "internalType": "uint256",
          "name": "durationMonths",
          "type": "uint256"
        },
        {
          "internalType": "string",
          "name": "ipfsHash",
          "type": "string"
        },
        {
          "internalType": "string",
          "name": "termsHash",
          "type": "string"
        },
        {
          "internalType": "string",
          "name": "contractType",
          "type": "string"
        }
      ],
      "name": "mintInvestment",
      "outputs": [
        {
          "internalType": "uint256",
          "name": "",
          "type": "uint256"
        }
      ],
      "stateMutability": "payable",
      "type": "function"
    },
    {
      "inputs": [],
      "name": "name",
      "outputs": [
        {
          "internalType": "string",
          "name": "",
          "type": "string"
        }
      ],
      "stateMutability": "view",
      "type": "function"
    },
    {
      "inputs": [],
      "name": "owner",
      "outputs": [
        {
          "internalType": "address",
          "name": "",
          "type": "address"
        }
      ],
      "stateMutability": "view",
      "type": "function"
    },
    {
      "inputs": [
        {
          "internalType": "uint256",
          "name": "tokenId",
          "type": "uint256"
        }
      ],
      "name": "ownerOf",
      "outputs": [
        {
          "internalType": "address",
          "name": "",
          "type": "address"
        }
      ],
      "stateMutability": "view",
      "type": "function"
    },
    {
      "inputs": [],
      "name": "renounceOwnership",
      "outputs": [],
      "stateMutability": "nonpayable",
      "type": "function"
    },
    {
      "inputs": [
        {
          "internalType": "address",
          "name": "from",
          "type": "address"
        },
        {
          "internalType": "address",
          "name": "to",
          "type": "address"
        },
        {
          "internalType": "uint256",
          "name": "tokenId",
          "type": "uint256"
        }
      ],
      "name": "safeTransferFrom",
      "outputs": [],
      "stateMutability": "nonpayable",
      "type": "function"
    },
    {
      "inputs": [
        {
          "internalType": "address",
          "name": "from",
          "type": "address"
        },
        {
          "internalType": "address",
          "name": "to",
          "type": "address"
        },
        {
          "internalType": "uint256",
          "name": "tokenId",
          "type": "uint256"
        },
        {
          "internalType": "bytes",
          "name": "data",
          "type": "bytes"
        }
      ],
      "name": "safeTransferFrom",
      "outputs": [],
      "stateMutability": "nonpayable",
      "type": "function"
    },
    {
      "inputs": [
        {
          "internalType": "address",
          "name": "operator",
          "type": "address"
        },
        {
          "internalType": "bool",
          "name": "approved",
          "type": "bool"
        }
      ],
      "name": "setApprovalForAll",
      "outputs": [],
      "stateMutability": "nonpayable",
      "type": "function"
    },
    {
      "inputs": [
        {
          "internalType": "bytes4",
          "name": "interfaceId",
          "type": "bytes4"
        }
      ],
      "name": "supportsInterface",
      "outputs": [
        {
          "internalType": "bool",
          "name": "",
          "type": "bool"
        }
      ],
      "stateMutability": "view",
      "type": "function"
    },
    {
      "inputs": [],
      "name": "symbol",
      "outputs": [
        {
          "internalType": "string",
          "name": "",
          "type": "string"
        }
      ],
      "stateMutability": "view",
      "type": "function"
    },
    {
      "inputs": [
        {
          "internalType": "uint256",
          "name": "tokenId",
          "type": "uint256"
        }
      ],
      "name": "tokenURI",
      "outputs": [
        {
          "internalType": "string",
          "name": "",
          "type": "string"
        }
      ],
      "stateMutability": "view",
      "type": "function"
    },
    {
      "inputs": [],
      "name": "totalSupply",
      "outputs": [
        {
          "internalType": "uint256",
          "name": "",
          "type": "uint256"
        }
      ],
      "stateMutability": "view",
      "type": "function"
    },
    {
      "inputs": [
        {
          "internalType": "address",
          "name": "from",
          "type": "address"
        },
        {
          "internalType": "address",
          "name": "to",
          "type": "address"
        },
        {
          "internalType": "uint256",
          "name": "tokenId",
          "type": "uint256"
        }
      ],
      "name": "transferFrom",
      "outputs": [],
      "stateMutability": "nonpayable",
      "type": "function"
    },
    {
      "inputs": [
        {
          "internalType": "address",
          "name": "newOwner",
          "type": "address"
        }
      ],
      "name": "transferOwnership",
      "outputs": [],
      "stateMutability": "nonpayable",
      "type": "function"
    },
    {
      "inputs": [],
      "name": "withdraw",
      "outputs": [],
      "stateMutability": "nonpayable",
      "type": "function"
    }
  ],
  "bytecode": "0x60806040523480156200001157600080fd5b506040518060400160405280601681526020017f496e766573746d656e742052656365697074205342540000000000000000000081525060405180604001604052806005815260200164125494d09560da1b8152508160009081620000779190620001a4565b506001620000868282620001a4565b505050620000a36200009d620000a960201b60201c565b620000ad565b62000270565b3390565b600680546001600160a01b038381166001600160a01b0319831681179093556040519116919082907f8be0079c531659141344cd1fd0a4f28419497f9722a3daafe3b4186f6b6457e090600090a35050565b634e487b7160e01b600052604160045260246000fd5b600181811c908216806200012a57607f821691505b6020821081036200014b57634e487b7160e01b600052602260045260246000fd5b50919050565b601f8211156200019f57600081815260208120601f850160051c810160208610156200017a5750805b601f850160051c820191505b818110156200019b5782815560010162000186565b5050505b505050565b81516001600160401b03811115620001c057620001c0620000ff565b620001d881620001d1845462000115565b8462000151565b602080601f831160018114620002105760008415620001f75750858301515b600019600386901b1c1916600185901b1785556200019b565b600085815260208120601f198616915b82811015620002415788860151825594840194600190910190840162000220565b5085821015620002605787850151600019600388901b60f8161c191681555b5050505050600190811b01905550565b61266b80620002806000396000f3fe60806040526004361061014b5760003560e01c806370a08231116100b6578063bc40f3bf1161006f578063bc40f3bf146103ae578063c87b56dd146103ce578063d548bc80146103ee578063e985e9c51461040e578063f2fde38b1461042e578063fd345c8a1461044e57600080fd5b806370a0823114610306578063715018a6146103265780638da5cb5b1461033b57806395d89b4114610359578063a22cb4651461036e578063b88d4fde1461038e57600080fd5b806323b872dd1161010857806323b872dd146102515780633ccfd60b1461027157806342842e0e1461028657806356ea53cc146102a65780636352211e146102b9578063696c5639146102d957600080fd5b806301ffc9a71461015057806306fdde0314610185578063081812fc146101a7578063095ea7b3146101df57806318160ddd1461020157806322ae634f14610224575b600080fd5b34801561015c57600080fd5b5061017061016b366004611e00565b610483565b60405190151581526020015b60405180910390f35b34801561019157600080fd5b5061019a6104d5565b60405161017c9190611e6d565b3480156101b357600080fd5b506101c76101c2366004611e80565b610567565b6040516001600160a01b03909116815260200161017c565b3480156101eb57600080fd5b506101ff6101fa366004611eb5565b61058e565b005b34801561020d57600080fd5b506102166106a8565b60405190815260200161017c565b34801561023057600080fd5b5061024461023f366004611e80565b6106b8565b60405161017c9190611edf565b34801561025d57600080fd5b506101ff61026c366004611f9d565b61099b565b34801561027d57600080fd5b506101ff6109cc565b34801561029257600080fd5b506101ff6102a1366004611f9d565b610a57565b6102166102b4366004612085565b610a72565b3480156102c557600080fd5b506101c76102d4366004611e80565b610cd6565b3480156102e557600080fd5b506102f96102f4366004612130565b610d36565b60405161017c919061214b565b34801561031257600080fd5b50610216610321366004612130565b610da2565b34801561033257600080fd5b506101ff610e28565b34801561034757600080fd5b506006546001600160a01b03166101c7565b34801561036557600080fd5b5061019a610e3c565b34801561037a57600080fd5b506101ff61038936600461218f565b610e4b565b34801561039a57600080fd5b506101ff6103a93660046121cb565b610e56565b3480156103ba57600080fd5b506102166103c9366004611eb5565b610e8e565b3480156103da57600080fd5b5061019a6103e9366004611e80565b610ebf565b3480156103fa57600080fd5b50610216610409366004611e80565b610f33565b34801561041a57600080fd5b50610170610429366004612247565b611286565b34801561043a57600080fd5b506101ff610449366004612130565b6112b4565b34801561045a57600080fd5b5061046e610469366004611e80565b61132d565b60405161017c9998979695949392919061227a565b60006001600160e01b031982166380ac58cd60e01b14806104b457506001600160e01b03198216635b5e139f60e01b145b806104cf57506301ffc9a760e01b6001600160e01b03198316145b92915050565b6060600080546104e4906122f6565b80601f0160208091040260200160405190810160405280929190818152602001828054610510906122f6565b801561055d5780601f106105325761010080835404028352916020019161055d565b820191906000526020600020905b81548152906001019060200180831161054057829003601f168201915b5050505050905090565b60006105728261151d565b506000908152600460205260409020546001600160a01b031690565b600061059982610cd6565b9050806001600160a01b0316836001600160a01b03160361060b5760405162461bcd60e51b815260206004820152602160248201527f4552433732313a20617070726f76616c20746f2063757272656e74206f776e656044820152603960f91b60648201526084015b60405180910390fd5b336001600160a01b038216148061062757506106278133611286565b6106995760405162461bcd60e51b815260206004820152603d60248201527f4552433732313a20617070726f76652063616c6c6572206973206e6f7420746f60448201527f6b656e206f776e6572206f7220617070726f76656420666f7220616c6c0000006064820152608401610602565b6106a3838361157c565b505050565b60006106b360075490565b905090565b61071260405180610120016040528060006001600160a01b03168152602001600081526020016000815260200160008152602001600081526020016060815260200160608152602001606081526020016000151581525090565b6000828152600260205260409020546001600160a01b03166107725760405162461bcd60e51b8152602060048201526019602482015278125b9d995cdd1b595b9d08191bd95cc81b9bdd08195e1a5cdd603a1b6044820152606401610602565b60008281526008602090815260409182902082516101208101845281546001600160a01b03168152600182015492810192909252600281015492820192909252600382015460608201526004820154608082015260058201805491929160a0840191906107de906122f6565b80601f016020809104026020016040519081016040528092919081815260200182805461080a906122f6565b80156108575780601f1061082c57610100808354040283529160200191610857565b820191906000526020600020905b81548152906001019060200180831161083a57829003601f168201915b50505050508152602001600682018054610870906122f6565b80601f016020809104026020016040519081016040528092919081815260200182805461089c906122f6565b80156108e95780601f106108be576101008083540402835291602001916108e9565b820191906000526020600020905b8154815290600101906020018083116108cc57829003601f168201915b50505050508152602001600782018054610902906122f6565b80601f016020809104026020016040519081016040528092919081815260200182805461092e906122f6565b801561097b5780601f106109505761010080835404028352916020019161097b565b820191906000526020600020905b81548152906001019060200180831161095e57829003601f168201915b50505091835250506008919091015460ff16151560209091015292915050565b6109a533826115ea565b6109c15760405162461bcd60e51b815260040161060290612330565b6106a3838383611649565b6109d46117ba565b4780610a195760405162461bcd60e51b81526020600482015260146024820152734e6f2066756e647320746f20776974686472617760601b6044820152606401610602565b6006546040516001600160a01b039091169082156108fc029083906000818181858888f19350505050158015610a53573d6000803e3d6000fd5b5050565b6106a383838360405180602001604052806000815250610e56565b6000803411610ad45760405162461bcd60e51b815260206004820152602860248201527f496e766573746d656e7420616d6f756e74206d75737420626520677265617465604482015267072207468616e20360c41b6064820152608401610602565b6001600160a01b038716610b2a5760405162461bcd60e51b815260206004820152601860248201527f496e76616c696420696e766573746f72206164647265737300000000000000006044820152606401610602565b6000610b3560075490565b9050610b45600780546001019055565b6000610b548762278d00612393565b610b5e90426123aa565b60408051610120810182526001600160a01b038c811682523460208084019182528385018e815242606086019081526080860188815260a087018f815260c088018f905260e088018e90526001610100890181905260008d8152600890965298909420875181546001600160a01b0319169716969096178655935196850196909655516002840155935160038301555160048201559151929350916005820190610c08908261240b565b5060c08201516006820190610c1d908261240b565b5060e08201516007820190610c32908261240b565b5061010091909101516008909101805460ff19169115159190911790556001600160a01b038916600090815260096020908152604082208054600181018255908352912001829055610c848983611814565b886001600160a01b0316827fff4be30ebc892556ce6c9df7bc8ce6fbc87dabdb3bb31a386bcf7fcd2822a25b348b8a604051610cc2939291906124cb565b60405180910390a350979650505050505050565b6000818152600260205260408120546001600160a01b0316806104cf5760405162461bcd60e51b8152602060048201526018602482015277115490cdcc8c4e881a5b9d985b1a59081d1bdad95b88125160421b6044820152606401610602565b6001600160a01b038116600090815260096020908152604091829020805483518184028101840190945280845260609392830182828015610d9657602002820191906000526020600020905b815481526020019060010190808311610d82575b50505050509050919050565b60006001600160a01b038216610e0c5760405162461bcd60e51b815260206004820152602960248201527f4552433732313a2061646472657373207a65726f206973206e6f7420612076616044820152683634b21037bbb732b960b91b6064820152608401610602565b506001600160a01b031660009081526003602052604090205490565b610e306117ba565b610e3a60006119ad565b565b6060600180546104e4906122f6565b610a533383836119ff565b610e6033836115ea565b610e7c5760405162461bcd60e51b815260040161060290612330565b610e8884848484611acd565b50505050565b60096020528160005260406000208181548110610eaa57600080fd5b90600052602060002001600091509150505481565b6060610eca8261151d565b6000610ee160408051602081019091526000815290565b90506000815111610f015760405180602001604052806000815250610f2c565b80610f0b84611b00565b604051602001610f1c9291906124ea565b6040516020818303038152906040525b9392505050565b6000818152600260205260408120546001600160a01b0316610f935760405162461bcd60e51b8152602060048201526019602482015278125b9d995cdd1b595b9d08191bd95cc81b9bdd08195e1a5cdd603a1b6044820152606401610602565b600082815260086020908152604080832081516101208101835281546001600160a01b03168152600182015493810193909352600281015491830191909152600381015460608301526004810154608083015260058101805460a084019190610ffb906122f6565b80601f0160208091040260200160405190810160405280929190818152602001828054611027906122f6565b80156110745780601f1061104957610100808354040283529160200191611074565b820191906000526020600020905b81548152906001019060200180831161105757829003601f168201915b5050505050815260200160068201805461108d906122f6565b80601f01602080910402602001604051908101604052809291908181526020018280546110b9906122f6565b80156111065780601f106110db57610100808354040283529160200191611106565b820191906000526020600020905b8154815290600101906020018083116110e957829003601f168201915b5050505050815260200160078201805461111f906122f6565b80601f016020809104026020016040519081016040528092919081815260200182805461114b906122f6565b80156111985780601f1061116d57610100808354040283529160200191611198565b820191906000526020600020905b81548152906001019060200180831161117b57829003601f168201915b50505091835250506008919091015460ff1615156020909101526101008101519091506111c9576020015192915050565b60008160600151426111db9190612519565b90506000826060015183608001516111f39190612519565b9050808210611234576064836040015184602001516112129190612393565b61121c919061252c565b836020015161122b91906123aa565b95945050505050565b6000611241826064612393565b83856040015186602001516112569190612393565b6112609190612393565b61126a919061252c565b905080846020015161127c91906123aa565b9695505050505050565b6001600160a01b03918216600090815260056020908152604080832093909416825291909152205460ff1690565b6112bc6117ba565b6001600160a01b0381166113215760405162461bcd60e51b815260206004820152602660248201527f4f776e61626c653a206e6577206f776e657220697320746865207a65726f206160448201526564647265737360d01b6064820152608401610602565b61132a816119ad565b50565b6008602052600090815260409020805460018201546002830154600384015460048501546005860180546001600160a01b0390961696949593949293919291611375906122f6565b80601f01602080910402602001604051908101604052809291908181526020018280546113a1906122f6565b80156113ee5780601f106113c3576101008083540402835291602001916113ee565b820191906000526020600020905b8154815290600101906020018083116113d157829003601f168201915b505050505090806006018054611403906122f6565b80601f016020809104026020016040519081016040528092919081815260200182805461142f906122f6565b801561147c5780601f106114515761010080835404028352916020019161147c565b820191906000526020600020905b81548152906001019060200180831161145f57829003601f168201915b505050505090806007018054611491906122f6565b80601f01602080910402602001604051908101604052809291908181526020018280546114bd906122f6565b801561150a5780601f106114df5761010080835404028352916020019161150a565b820191906000526020600020905b8154815290600101906020018083116114ed57829003601f168201915b5050506008909301549192505060ff1689565b6000818152600260205260409020546001600160a01b031661132a5760405162461bcd60e51b8152602060048201526018602482015277115490cdcc8c4e881a5b9d985b1a59081d1bdad95b88125160421b6044820152606401610602565b600081815260046020526040902080546001600160a01b0319166001600160a01b03841690811790915581906115b182610cd6565b6001600160a01b03167f8c5be1e5ebec7d5bd14f71427d1e84f3dd0314c0f7b2291e5b200ac8c7c3b92560405160405180910390a45050565b6000806115f683610cd6565b9050806001600160a01b0316846001600160a01b0316148061161d575061161d8185611286565b806116415750836001600160a01b031661163684610567565b6001600160a01b0316145b949350505050565b826001600160a01b031661165c82610cd6565b6001600160a01b0316146116825760405162461bcd60e51b81526004016106029061254e565b6001600160a01b0382166116e45760405162461bcd60e51b8152602060048201526024808201527f4552433732313a207472616e7366657220746f20746865207a65726f206164646044820152637265737360e01b6064820152608401610602565b6116f18383836001611b93565b826001600160a01b031661170482610cd6565b6001600160a01b03161461172a5760405162461bcd60e51b81526004016106029061254e565b600081815260046020908152604080832080546001600160a01b03199081169091556001600160a01b0387811680865260038552838620805460001901905590871680865283862080546001019055868652600290945282852080549092168417909155905184937fddf252ad1be2c89b69c2b068fc378daa952ba7f163c4a11628f55a4df523b3ef91a4505050565b6006546001600160a01b03163314610e3a5760405162461bcd60e51b815260206004820181905260248201527f4f776e61626c653a2063616c6c6572206973206e6f7420746865206f776e65726044820152606401610602565b6001600160a01b03821661186a5760405162461bcd60e51b815260206004820181905260248201527f4552433732313a206d696e7420746f20746865207a65726f20616464726573736044820152606401610602565b6000818152600260205260409020546001600160a01b0316156118cf5760405162461bcd60e51b815260206004820152601c60248201527f4552433732313a20746f6b656e20616c7265616479206d696e746564000000006044820152606401610602565b6118dd600083836001611b93565b6000818152600260205260409020546001600160a01b0316156119425760405162461bcd60e51b815260206004820152601c60248201527f4552433732313a20746f6b656e20616c7265616479206d696e746564000000006044820152606401610602565b6001600160a01b038216600081815260036020908152604080832080546001019055848352600290915280822080546001600160a01b0319168417905551839291907fddf252ad1be2c89b69c2b068fc378daa952ba7f163c4a11628f55a4df523b3ef908290a45050565b600680546001600160a01b038381166001600160a01b0319831681179093556040519116919082907f8be0079c531659141344cd1fd0a4f28419497f9722a3daafe3b4186f6b6457e090600090a35050565b816001600160a01b0316836001600160a01b031603611a605760405162461bcd60e51b815260206004820152601960248201527f4552433732313a20617070726f766520746f2063616c6c6572000000000000006044820152606401610602565b6001600160a01b03838116600081815260056020908152604080832094871680845294825291829020805460ff191686151590811790915591519182527f17307eab39ab6107e8899845ad3d59bd9653f200f220920489ca2b5937696c31910160405180910390a3505050565b611ad8848484611649565b611ae484848484611c11565b610e885760405162461bcd60e51b815260040161060290612593565b60606000611b0d83611d12565b600101905060008167ffffffffffffffff811115611b2d57611b2d611fd9565b6040519080825280601f01601f191660200182016040528015611b57576020820181803683370190505b5090508181016020015b600019016f181899199a1a9b1b9c1cb0b131b232b360811b600a86061a8153600a8504945084611b6157509392505050565b6001600160a01b0384161580611bb057506001600160a01b038316155b611c0c5760405162461bcd60e51b815260206004820152602760248201527f536f756c20426f756e6420546f6b656e732063616e6e6f74206265207472616e6044820152661cd9995c9c995960ca1b6064820152608401610602565b610e88565b60006001600160a01b0384163b15611d0757604051630a85bd0160e11b81526001600160a01b0385169063150b7a0290611c559033908990889088906004016125e5565b6020604051808303816000875af1925050508015611c90575060408051601f3d908101601f19168201909252611c8d91810190612618565b60015b611ced573d808015611cbe576040519150601f19603f3d011682016040523d82523d6000602084013e611cc3565b606091505b508051600003611ce55760405162461bcd60e51b815260040161060290612593565b805181602001fd5b6001600160e01b031916630a85bd0160e11b149050611641565b506001949350505050565b60008072184f03e93ff9f4daa797ed6e38ed64bf6a1f0160401b8310611d515772184f03e93ff9f4daa797ed6e38ed64bf6a1f0160401b830492506040015b6d04ee2d6d415b85acef81000000008310611d7d576d04ee2d6d415b85acef8100000000830492506020015b662386f26fc100008310611d9b57662386f26fc10000830492506010015b6305f5e1008310611db3576305f5e100830492506008015b6127108310611dc757612710830492506004015b60648310611dd9576064830492506002015b600a83106104cf5760010192915050565b6001600160e01b03198116811461132a57600080fd5b600060208284031215611e1257600080fd5b8135610f2c81611dea565b60005b83811015611e38578181015183820152602001611e20565b50506000910152565b60008151808452611e59816020860160208601611e1d565b601f01601f19169290920160200192915050565b602081526000610f2c6020830184611e41565b600060208284031215611e9257600080fd5b5035919050565b80356001600160a01b0381168114611eb057600080fd5b919050565b60008060408385031215611ec857600080fd5b611ed183611e99565b946020939093013593505050565b60208152611ef96020820183516001600160a01b03169052565b602082015160408201526040820151606082015260608201516080820152608082015160a0820152600060a08301516101208060c0850152611f3f610140850183611e41565b915060c0850151601f19808685030160e0870152611f5d8483611e41565b935060e08701519150610100818786030181880152611f7c8584611e41565b94508088015192505050611f938286018215159052565b5090949350505050565b600080600060608486031215611fb257600080fd5b611fbb84611e99565b9250611fc960208501611e99565b9150604084013590509250925092565b634e487b7160e01b600052604160045260246000fd5b600067ffffffffffffffff8084111561200a5761200a611fd9565b604051601f8501601f19908116603f0116810190828211818310171561203257612032611fd9565b8160405280935085815286868601111561204b57600080fd5b858560208301376000602087830101525050509392505050565b600082601f83011261207657600080fd5b610f2c83833560208501611fef565b60008060008060008060c0878903121561209e57600080fd5b6120a787611e99565b95506020870135945060408701359350606087013567ffffffffffffffff808211156120d257600080fd5b6120de8a838b01612065565b945060808901359150808211156120f457600080fd5b6121008a838b01612065565b935060a089013591508082111561211657600080fd5b5061212389828a01612065565b9150509295509295509295565b60006020828403121561214257600080fd5b610f2c82611e99565b6020808252825182820181905260009190848201906040850190845b8181101561218357835183529284019291840191600101612167565b50909695505050505050565b600080604083850312156121a257600080fd5b6121ab83611e99565b9150602083013580151581146121c057600080fd5b809150509250929050565b600080600080608085870312156121e157600080fd5b6121ea85611e99565b93506121f860208601611e99565b925060408501359150606085013567ffffffffffffffff81111561221b57600080fd5b8501601f8101871361222c57600080fd5b61223b87823560208401611fef565b91505092959194509250565b6000806040838503121561225a57600080fd5b61226383611e99565b915061227160208401611e99565b90509250929050565b600061012060018060a01b038c1683528a60208401528960408401528860608401528760808401528060a08401526122b481840188611e41565b905082810360c08401526122c88187611e41565b905082810360e08401526122dc8186611e41565b9150508215156101008301529a9950505050505050505050565b600181811c9082168061230a57607f821691505b60208210810361232a57634e487b7160e01b600052602260045260246000fd5b50919050565b6020808252602d908201527f4552433732313a2063616c6c6572206973206e6f7420746f6b656e206f776e6560408201526c1c881bdc88185c1c1c9bdd9959609a1b606082015260800190565b634e487b7160e01b600052601160045260246000fd5b80820281158282048414176104cf576104cf61237d565b808201808211156104cf576104cf61237d565b601f8211156106a357600081815260208120601f850160051c810160208610156123e45750805b601f850160051c820191505b81811015612403578281556001016123f0565b505050505050565b815167ffffffffffffffff81111561242557612425611fd9565b6124398161243384546122f6565b846123bd565b602080601f83116001811461246e57600084156124565750858301515b600019600386901b1c1916600185901b178555612403565b600085815260208120601f198616915b8281101561249d5788860151825594840194600190910190840161247e565b50858210156124bb5787850151600019600388901b60f8161c191681555b5050505050600190811b01905550565b83815282602082015260606040820152600061122b6060830184611e41565b600083516124fc818460208801611e1d565b835190830190612510818360208801611e1d565b01949350505050565b818103818111156104cf576104cf61237d565b60008261254957634e487b7160e01b600052601260045260246000fd5b500490565b60208082526025908201527f4552433732313a207472616e736665722066726f6d20696e636f72726563742060408201526437bbb732b960d91b606082015260800190565b60208082526032908201527f4552433732313a207472616e7366657220746f206e6f6e20455243373231526560408201527131b2b4bb32b91034b6b83632b6b2b73a32b960711b606082015260800190565b6001600160a01b038581168252841660208201526040810183905260806060820181905260009061127c90830184611e41565b60006020828403121561262a57600080fd5b8151610f2c81611dea56fea2646970667358221220b7e44df00e4f049a5660dd0a5a82f2903d544a711d4c4209cd07713196658f7b64736f6c63430008130033",
  "linkReferences": {},
  "deployedLinkReferences": {}
}